:100000000C9434000C9451000C9451000C94510049
:100010000C9451000C9451000C9451000C9451001C
:100020000C9451000C9451000C9451000C9451000C
:100030000C9451000C9451000C9451000C945100FC
:100040000C9451000C9451000C9451000C945100EC
:100050000C9451000C9451000C9451000C945100DC
:100060000C9451000C94510011241FBECFEFD8E026
:10007000DEBFCDBF11E0A0E0B1E0EEE9F9E002C0E3
:1000800005900D92A830B107D9F721E0A8E0B1E0C2
:1000900001C01D92A031B207E1F70E940E020C943C
:1000A000CD040C9400006130D1F4883048F49AB14A
:1000B00021E001C0220F8A95EAF7922B9AB90895A0
:1000C000982F9850963040F524B18850990B41E014
:1000D00001C0440F8A95EAF7242B24B90895E0F46F
:1000E000883050F49AB121E001C0220F8A95EAF7D6
:1000F000209529232AB90895982F9850963060F4B6
:1001000044B18850990B21E001C0220F8A95EAF78B
:10011000822F8095842384B90895877080648093AA
:100120007C0080917A00806880937A0080917A00C8
:10013000806480937A0080917A0086FDFCCF809164
:100140007800909179000895549A539A529A55984C
:1001500008954F925F926F927F92AF92BF92CF922B
:10016000DF92EF92FF920F931F93CF93DF93CDB760
:10017000DEB729013A019B01AC0124193509460972
:10018000570989899A89AB89BC898A199B09AC0965
:10019000BD09BC01CD010E9424029701A8012419C8
:1001A0003509460957090E9434022A0D3B1D4C1D92
:1001B0005D1DB901CA01DF91CF911F910F91FF9091
:1001C000EF90DF90CF90BF90AF907F906F905F9057
:1001D0004F90089520E030E02817390709F408957A
:1001E00045E04A95F1F700002F5F3F4FF5CF88308B
:1001F00078F421E001C0220F8A95EAF79BB1822FA3
:10020000613019F4892B8BB9089580958923FBCF30
:10021000982F9850963068F48850990B21E001C0CF
:10022000220F8A95EAF795B1822F613019F4892B54
:1002300085B9089580958923FBCF4F925F926F9285
:100240007F928F929F92AF92BF92CF92DF92EF9266
:10025000FF920F931F93CF93DF9300D000D000D075
:10026000CDB7DEB78B018D839E8329013A01A82F7C
:10027000B92F9B01AD01B201C3010E948F024B0156
:100280005C01609308019092090180930A01B09289
:100290000B0120E030E048EC53E40E9460049F77BB
:1002A0006B017C0120E034E244E759E460910401F1
:1002B0007091050180910601909107010E946004F0
:1002C0009601A7010E94010369837A838B839C8333
:1002D0009401A5015F776091000170910101809107
:1002E0000201909103010E945B0487FD31C040E050
:1002F00050E09A01B201C3010E94FC02803041F13A
:100300009601A70169817A818B819C810E9460049A
:100310000E947A03CB010E94EA00AD81BE81B80140
:10032000CD010F900F900F900F900F900F90DF91D5
:10033000CF911F910F91FF90EF90DF90CF90BF90E2
:10034000AF909F908F907F906F905F904F900895A7
:1003500040E050E09A01B401C5010E945B04181608
:10036000F4F45C9A5B9882016D827E82B601C701CB
:100370000E9473036B01E12CF12CCE14DF0469F2AF
:100380005A9A69817A818B819C810E947A03CB0180
:100390000E94EA005A988FEFE81AF80AEECF40E080
:1003A00050E09A01B401C5010E94FC0287FFDECF34
:1003B0005C985B9AD8CF85E00E948D00A0E0B0E009
:1003C0000197A040B0409C01AD01A8E5B2E00E94B9
:1003D00053022EEF33E040E050E00E943402B901B6
:1003E000CA010E94AB032AE037ED43E25CE30E94BE
:1003F00060049B01AC0160910C0170910D01809132
:100400000E0190910F010E941D0160930C017093E9
:100410000D0180930E0190930F010895259A2D9A56
:100420008FEF99E628E1815090402040E1F700C02D
:1004300000002D988FEF99E628E1815090402040F0
:10044000E1F700C00000EBCFDB018F939F930E9488
:100450005302BF91AF91A29F800D911DA39F900D5C
:10046000B29F900D11240895052E97FB1EF4009461
:100470000E944B0257FD07D00E946D0207FC03D07B
:100480004EF40C944B0250954095309521953F4F7A
:100490004F4F5F4F089590958095709561957F4F70
:1004A0008F4F9F4F08950E945E02A59F900DB49FAD
:1004B000900DA49F800D911D11240895A29FB0015D
:1004C000B39FC001A39F700D811D1124911DB29F88
:1004D000700D811D1124911D0895A1E21A2EAA1BF1
:1004E000BB1BFD010DC0AA1FBB1FEE1FFF1FA217E4
:1004F000B307E407F50720F0A21BB30BE40BF50BE1
:10050000661F771F881F991F1A9469F76095709569
:10051000809590959B01AC01BD01CF010895505885
:10052000BB27AA270E94A7020C9421040E9413044F
:1005300038F00E941A0420F039F49F3F19F426F491
:100540000C9410040EF4E095E7FB0C940A04E92FD8
:100550000E94320458F3BA1762077307840795079D
:1005600020F079F4A6F50C9454040EF4E0950B2ECB
:10057000BA2FA02D0B01B90190010C01CA01A001F5
:100580001124FF27591B99F0593F50F4503E68F150
:100590001A16F040A22F232F342F4427585FF3CF91
:1005A000469537952795A795F0405395C9F77EF462
:1005B0001F16BA0B620B730B840BBAF09150A1F0AB
:1005C000FF0FBB1F661F771F881FC2F70EC0BA0F31
:1005D000621F731F841F48F4879577956795B795B9
:1005E000F7959E3F08F0B0CF9395880F08F09927B4
:1005F000EE0F9795879508950E94E60308F481E031
:1006000008950E9415030C9421040E941A0458F0C6
:100610000E94130440F029F45F3F29F00C940A046F
:1006200051110C9455040C9410040E94320468F388
:100630009923B1F3552391F3951B550BBB27AA279B
:1006400062177307840738F09F5F5F4F220F331FD5
:10065000441FAA1FA9F335D00E2E3AF0E0E832D09D
:1006600091505040E695001CCAF72BD0FE2F29D0A0
:10067000660F771F881FBB1F261737074807AB0772
:10068000B0E809F0BB0B802DBF01FF2793585F4FE7
:100690003AF09E3F510578F00C940A040C945504EE
:1006A0005F3FE4F3983ED4F3869577956795B795C9
:1006B000F7959F5FC9F7880F911D9695879597F9D4
:1006C0000895E1E0660F771F881FBB1F621773074D
:1006D0008407BA0720F0621B730B840BBA0BEE1F62
:1006E00088F7E09508950E947A036894B1110C94FC
:1006F000550408950E943A0488F09F5798F0B92F46
:100700009927B751B0F0E1F0660F771F881F991F46
:100710001AF0BA95C9F714C0B13091F00E94540490
:10072000B1E008950C945404672F782F8827B85FA0
:1007300039F0B93FCCF3869577956795B395D9F79E
:100740003EF490958095709561957F4F8F4F9F4FA8
:100750000895E89409C097FB3EF4909580957095B4
:1007600061957F4F8F4F9F4F9923A9F0F92F96E9FD
:10077000BB279395F695879577956795B795F11172
:10078000F8CFFAF4BB0F11F460FF1BC06F5F7F4F0F
:100790008F4F9F4F16C0882311F096E911C0772321
:1007A00021F09EE8872F762F05C0662371F096E82A
:1007B000862F70E060E02AF09A95660F771F881FF9
:1007C000DAF7880F9695879597F90895990F00089D
:1007D000550FAA0BE0E8FEEF16161706E807F90713
:1007E000C0F012161306E407F50798F0621B730BAE
:1007F000840B950B39F40A2661F0232B242B252B2F
:1008000021F408950A2609F4A140A6958FEF811DD1
:10081000811D089597F99F6780E870E060E0089572
:100820009FEF80EC089500240A9416161706180608
:100830000906089500240A941216130614060506E4
:100840000895092E0394000C11F4882352F0BB0F75
:1008500040F4BF2B11F460FF04C06F5F7F4F8F4FD8
:100860009F4F089557FD9058440F551F59F05F3F13
:1008700071F04795880F97FB991F61F09F3F79F0C2
:1008800087950895121613061406551FF2CF469544
:10089000F1DF08C0161617061806991FF1CF8695C6
:1008A0007105610508940895E894BB2766277727AA
:1008B000CB0197F908950E94E60308F48FEF08959D
:1008C0000E9473040C9421040E94130438F00E94C7
:1008D0001A0420F0952311F00C940A040C941004CF
:1008E00011240C9455040E94320470F3959FC1F3B7
:1008F000950F50E0551F629FF001729FBB27F00DCE
:10090000B11D639FAA27F00DB11DAA1F649F662722
:10091000B00DA11D661F829F2227B00DA11D621F71
:10092000739FB00DA11D621F839FA00D611D221F2B
:10093000749F3327A00D611D231F849F600D211D0F
:10094000822F762F6A2F11249F5750409AF0F1F092
:1009500088234AF0EE0FFF1FBB1F661F771F881FFB
:1009600091505040A9F79E3F510580F00C940A0425
:100970000C9455045F3FE4F3983ED4F38695779545
:100980006795B795F795E7959F5FC1F7FE2B880FA1
:0E099000911D9695879597F90895F894FFCFDD
:08099E00CDCC4C3DCDCC4C3D0D
:00000001FF
