:100000000C9435000C945D000C945D000C945D0024
:100010000C945D000C945D000C945D000C945D00EC
:100020000C945D000C945D000C945D000C945F00DA
:100030000C945D000C945D000C945D000C945D00CC
:100040000C945D000C945D000C945D000C945D00BC
:100050000C945D000C945D000C945D000C945D00AC
:100060000C945D000C945D00060111241FBECFEFBF
:10007000D8E0DEBFCDBF11E0A0E0B1E0E8EFF7E0EF
:1000800002C005900D92A631B107D9F721E0A6E193
:10009000B1E001C01D92A931B207E1F710E0C5E35C
:1000A000D0E004C02197FE010E941B01C433D10798
:1000B000C9F70E94E0000C94FA030C9400008F939F
:1000C00081E0809318018F911895FC012081211106
:1000D00001C0089501963091C00035FFFCCF2093F8
:1000E000C600F3CFCF93DF9300D000D000D0CDB7C0
:1000F000DEB78C0139E0E32E31E0F32E6E018FEF95
:10010000C81AD80AF8018281803009F452C01282DC
:1001100080917A00806480937A0080917A0086FDD5
:10012000FCCF8091780090917900F80180839183D1
:1001300080E091E00E946500F80181818F938081C9
:100140008F93FF92EF92DF92CF920E942101C6011E
:100150000E9465008CE091E00E946500F80120811A
:100160003181A8E8B3E10E940C01A92F982F872FB5
:10017000A69597958795A695979587959F938F9325
:10018000FF92EF92DF92CF920E942101C6010E945E
:1001900065008FE091E00E94650085B190E28927BB
:1001A00085B98DB79EB70C960FB6F8949EBF0FBE5B
:1001B0008DBF8FE39CE90197F1F700C00000A2CF4B
:1001C000259A1092C50087E68093C40088E1809349
:1001D000C10086E08093C20080E480937C0087E8C1
:1001E00080937A00E1E8F0E080818D60808388E090
:1001F0009DE39093890080938800EFE68081826080
:100200008083789486E191E00E947200E6E1F1E05B
:100210001082118212820895A29FB001B39FC00183
:10022000A39F700D811D1124911DB29F700D811D22
:100230001124911D0895EE0FFF1F0590F491E02DFC
:100240000994AEE0B0E0E7E2F1E00C94D30386E07D
:100250008C838B899C8989839A838FEF9FE78D8319
:100260009E83CE014796AC016D897E8946970E9498
:100270004401EF81F8852B893C89E20FF31F10823E
:100280002E96E2E00C94EF03ABE0B0E0EAE4F1E09C
:100290000C94C6035C016B017A01FC011682178283
:1002A000838181FFC9C1F5012381F60123FD859179
:1002B00023FF81916F01803009F429C1853239F41F
:1002C00023FD959123FF91916F01953229F4B5019A
:1002D00090E00E943503E7CF30E0712C512C00E014
:1002E000003210F59B32C9F050F49032B9F09332DD
:1002F000C9F09E3269F506FD0AC1006405C09D3251
:1003000079F0903399F40160F60123FD959123FF74
:1003100091916F019111E4CF24C002600460F4CF89
:100320000860F2CF0061F0CF07FD1BC0892F80531A
:100330008A30F8F69AE006FF05C0799E800D1124F8
:10034000782EE2CF599E800D1124582E0062DCCF0A
:100350009C3611F40068D8CF9C3409F448C0983614
:1003600099F2892F8F7D8554833008F442C09336EB
:1003700009F464C0933709F468C0933509F474C074
:10038000943619F0993609F0A0C0F70107FF96C01E
:1003900081919191A191B1917F010F76B7FF08C032
:1003A000B095A095909581959F4FAF4FBF4F006836
:1003B0002AE030E04E014FEF841A940AA401BC01F8
:1003C000CD010E9465038819882E06FFC1C0802FC9
:1003D0008E7F871408F0BBC004FF0CC102FD00C172
:1003E0000E7E972C802F867809F4BDC0FEC031E0C8
:1003F0008BCF3030F9F088E0E80EF11C8FE3898371
:1004000081E0682E712C4E018FEF881A980A0F77C1
:1004100003FD03C065147104B8F161147604D9F5C5
:10042000511409F440CFB50180E290E00E943503F9
:100430005A94F6CF84E0E80EF11CE0CFF7018081FA
:10044000898382E0E80EF11CDBCFF7018190919067
:100450007F01672D70E006FD02C06FEF7FEFC401E2
:100460000E942A033C01D3CFF701819091907F0134
:10047000672D70E006FD02C06FEF7FEFC4010E94A0
:100480001F033C010068C4CFB50180E290E00E94E8
:1004900035035A94BFCFF40107FD859107FF819181
:1004A0004F01B50190E00E94350381E0511001C079
:1004B00080E0581A81E0681A7108AFCF819191915C
:1004C000A92FAA0FAA0BBA2F67CF102F9537B9F40F
:1004D0001F7E2AE030E0F70117FF34C0619171916F
:1004E000819191917F014E014FEF841A940AA401EA
:1004F0000E9465038819882E1F77012F66CF197F08
:10050000903799F058F4983599F09F36C1F0F5017D
:10051000868197812B96EFE00C94E2039837B9F728
:1005200004FD04C020E130E0D6CF10611460FACFA2
:1005300004FF02C0102F166020E132E0CCCF28E08B
:1005400030E0C9CF6191719180E090E0CBCF082F6E
:10055000982C04FF47CFFE01E80DF11D8081803308
:1005600009F041C0097E03FD0EC000FF4FC0782C8A
:10057000951418F4750C7918952C852D8919591432
:1005800008F480E0980E951408F042C0591804FF52
:1005900041C0B50180E390E00E94350302FF09C02D
:1005A00088E590E001FD02C088E790E0B5010E9477
:1005B00035038714D0F13E018FEF681A780ACE0117
:1005C00002968A94880E992E911CF40182914F0113
:1005D000B50190E00E94350386149704B1F720CF4F
:1005E000972C082FB8CF02FD02C09394BCCF9394F0
:1005F0009394B9CF972C082FF5CEB50180E290E007
:100600000E94350363946514C0F3B7CF692CFBCF08
:10061000512CBDCF802F867861F280E201FD8BE204
:1006200007FD8DE2B50190E0C2CFB50180E390E017
:100630000E9435037A94BDCF8FEF9FEF6BCFFC0103
:100640000590615070400110D8F7809590958E0FFD
:100650009F1F0895FC016150704001900110D8F770
:10066000809590958E0F9F1F08950F931F93CF93A2
:10067000DF93182F092FEB018B8181FD09C00FEF4C
:100680001FEF812F902FDF91CF911F910F91089530
:1006900082FF14C02E813F818C819D8128173907EC
:1006A0003CF4E881F981CF01019688839983108316
:1006B0008E819F8101968E839F83E3CFE885F985A4
:1006C000812F0995892BA1F3DACFFA01AA272830C7
:1006D00051F1203181F1E8946F936E7F6E5F7F4F0F
:1006E0008F4F9F4FAF4FB1E03ED0B4E03CD0670F8B
:1006F000781F891F9A1FA11D680F791F8A1F911DDE
:10070000A11D6A0F711D811D911DA11D20D009F42D
:1007100068943F912AE0269F11243019305D31936F
:10072000DEF6CF010895462F4770405D4193B3E058
:100730000FD0C9F7F6CF462F4F70405D4A3318F0FF
:10074000495D31FD4052419302D0A9F7EACFB4E0B0
:10075000A6959795879577956795BA95C9F7009768
:100760006105710508959B01AC010A2E0694579509
:10077000479537952795BA95C9F7620F731F841F60
:10078000951FA01D08952F923F924F925F926F92F6
:100790007F928F929F92AF92BF92CF92DF92EF9211
:1007A000FF920F931F93CF93DF93CDB7DEB7CA1B92
:1007B000DB0B0FB6F894DEBF0FBECDBF09942A88BD
:1007C000398848885F846E847D848C849B84AA8465
:1007D000B984C884DF80EE80FD800C811B81AA81F2
:1007E000B981CE0FD11D0FB6F894DEBF0FBECDBFBD
:0807F000ED010895F894FFCF1C
:1007F8004144432041303A20002575002028006DEF
:0608080056290D0A000054
:00000001FF
