:100000000C9434000C943E000C943E000C943E0082
:100010000C943E000C943E000C943E000C943E0068
:100020000C943E000C943E000C943E000C943E0058
:100030000C943E000C943E000C943E000C943E0048
:100040000C943E000C943E000C943E000C943E0038
:100050000C943E000C943E000C943E000C943E0028
:100060000C943E000C943E0011241FBECFEFD8E04C
:10007000DEBFCDBF0E9457000C945C000C940000C2
:10008000259A08952D9A8FEF93ED20E381509040AB
:100090002040E1F700C000002D988FEF93ED20E3A2
:1000A000815090402040E1F700C0000008950E9478
:0C00B00040000E944200FDCFF894FFCFFA
:00000001FF
