:100000000C9434000C9451000C9451000C94510049
:100010000C9451000C9451000C9451000C9451001C
:100020000C9451000C9451000C9451000C9451000C
:100030000C9451000C9451000C9451000C945100FC
:100040000C9451000C9451000C9451000C945100EC
:100050000C9451000C9451000C9451000C945100DC
:100060000C9451000C94510011241FBECFEFD8E026
:10007000DEBFCDBF11E0A0E0B1E0E6EEFCE002C0E3
:1000800005900D92A634B107D9F721E0A6E4B1E0BE
:1000900001C01D92AE34B207E1F70E94C3030C9475
:1000A00071060C9400009091C00095FFFCCF8093E6
:1000B000C6000895CF93DF93EC018881811103C0BE
:1000C000DF91CF91089521960E945300F6CF4F9271
:1000D0005F926F927F92AF92BF92CF92DF92EF9238
:1000E000FF920F931F93CF93DF93CDB7DEB72C977B
:1000F0000FB6F894DEBF0FBECDBF2B013C018A01C5
:100100004114540464047404C9F480E3FA01808344
:1001100011822C960FB6F894DEBF0FBECDBFDF91D3
:10012000CF911F910F91FF90EF90DF90CF90BF90F4
:10013000AF907F906F905F904F9008956E018FEF1A
:10014000C81AD80A5601E12CF12CB201C3012AE0E9
:1001500030E040E050E00E94D803D7018FEFE81A6A
:10016000F80A605DF50161935F01B201C3012901E5
:100170003A016A3070408040904038F7AC0DBD1DA8
:10018000F801E00EF11E8C9181931197EE15FF0599
:10019000D1F71082BECF4F925F926F927F92AF9253
:1001A000BF92CF92DF92EF92FF920F931F93CF9364
:1001B000DF93CDB7DEB760970FB6F894DEBF0FBE02
:1001C000CDBF6B017C0140E050E09A010E94A00489
:1001D00087FF07C08DE20E945300F7FAF094F7F80A
:1001E000F094B601C7010E941E052B013C010E943C
:1001F0004D059B01AC01B601C7010E94330420E00C
:1002000030E048EC52E40E94040620E030E040E098
:100210005FE30E9434040E941E055B016C017E01B5
:100220008FEFE81AF80A8701A701B201C3010E9403
:100230006700C7010E945A008EE20E9453008AE0C4
:10024000A816B104C104D10418F480E30E9453003D
:10025000A801B501C6010E946700C8010E945A00AA
:1002600060960FB6F894DEBF0FBECDBFDF91CF9181
:100270001F910F91FF90EF90DF90CF90BF90AF90C4
:100280007F906F905F904F9008956130C1F48830F7
:1002900048F49AB121E001C0220F8A95EAF7922B27
:1002A0009AB908958E3028F524B18850990B41E011
:1002B00001C0440F8A95EAF7242B24B908958830A9
:1002C00050F49AB121E001C0220F8A95EAF72095F7
:1002D00029232AB908958E3060F444B18850990BCF
:1002E00021E001C0220F8A95EAF7822F80958423AE
:1002F00084B908958770806480937C0080917A002F
:10030000806880937A0080917A00806480937A007C
:1003100080917A0086FDFCCF8091780090917900E1
:100320000895549A539A529A5598E0ECF0E08081DF
:10033000826080831092C50080E18093C40088E0D1
:100340008093C10086E08093C20008954F925F922F
:100350006F927F92AF92BF92CF92DF92EF92FF9215
:100360000F931F93CF93DF93CDB7DEB729013A01E7
:100370009B01AC01241935094609570989899A89D5
:10038000AB89BC898A199B09AC09BD09BC01CD01A7
:100390000E94C8039701A801241935094609570985
:1003A0000E94FA032A0D3B1D4C1D5D1DB901CA01B7
:1003B000DF91CF911F910F91FF90EF90DF90CF9041
:1003C000BF90AF907F906F905F904F90089520E026
:1003D00030E02817390709F4089545E04A95F1F708
:1003E00000002F5F3F4FF5CF883078F421E001C047
:1003F000220F8A95EAF79BB1822F613019F4892B7D
:100400008BB9089580958923FBCF982F985096300B
:1004100068F48850990B21E001C0220F8A95EAF711
:1004200095B1822F613019F4892B85B90895809593
:100430008923FBCF2F923F924F925F926F927F92D0
:100440008F929F92AF92BF92CF92DF92EF92FF92E4
:100450000F931F93CF93DF93CDB7DEB728970FB6D7
:10046000F894DEBF0FBECDBF6B837C838D839E83EC
:10047000890149835A83A82FB92F9B01AD01A98116
:10048000BA81B801CD010E9433042B013C0120E068
:1004900030E048EC53E40E9404069F776B017C0136
:1004A00020E030E040E85FE30E94A00487FD6DC0DB
:1004B0009601A701609104017091050180910601E8
:1004C000909107010E94A5044B015C0120E030E0FF
:1004D00048E452E40E94A00487FD7AC0B401C5013B
:1004E0000E941E056F8378876630704008F079C0DF
:1004F00020E030E040E05FE3B401C5010E94040663
:100500000E941E051B0188E091E00E945A00B6017E
:10051000C7010E94CB008BE091E00E945A008DE061
:1005200091E00E945A00B401C5010E94CB008BE00B
:1005300091E00E945A009201A3015F77609100014F
:100540007091010180910201909103010E94FF05C9
:1005500087FD4BC040E050E09A01A981BA81B80103
:10056000CD010E94A004803009F43FC088E191E0F1
:100570000E945A009401A501B601C7010E94040619
:100580000E941E05CB010E94E7010B811C818D8119
:1005900089838E818A83A981BA81B801CD01289689
:1005A0000FB6F894DEBF0FBECDBFDF91CF911F9184
:1005B0000F91FF90EF90DF90CF90BF90AF909F9002
:1005C0008F907F906F905F904F903F902F90089505
:1005D00082E38F831886812C912C28E4A22E22E4BA
:1005E000B22E95E0292E312C8ECFAF80B884A21880
:1005F000B3088F8198858215930519F481E0A82EA0
:10060000B12C40E050E09A01B201C3010E94FF0505
:100610001816ECF482E291E00E945A005C9A5B9812
:10062000B601C7010E9417056B01E12CF12CCE1415
:10063000DF0409F4B0CF5A9AC1010E94E7015A9829
:10064000C5010E94E7018FEFE81AF80AF0CF40E0F9
:1006500050E09A01B201C3010E94A00487FFE0CFDD
:100660008CE291E00E945A005C985B9AD9CF8F92FD
:100670009F92AF92BF92CF92DF92EF92FF92CF9371
:10068000DF93CDB7DEB760970FB6F894DEBF0FBE2D
:10069000CDBF85E00E947A016C01E12CF12CBC01F8
:1006A000C7010E944D0520E030EC4FE754E40E9462
:1006B000A50440EC50E497010E9404064B015C0144
:1006C00060914A0170914B0180914C0190914D01D4
:1006D0009401A5010E941A0260934A0170934B0194
:1006E00080934C0190934D0187E391E00E945A0062
:1006F000CE010196AC01B601C7010E946700CE0190
:1007000001960E945A008BE091E00E945A008CE30F
:1007100091E00E945A00B401C5010E94CB008BE019
:1007200091E00E945A0081E491E00E945A00609199
:100730004A0170914B0180914C0190914D010E94B2
:10074000CB008BE091E00E945A0089E291E00E9488
:100750005A008FEF91EE24E0815090402040E1F765
:1007600000C0000060960FB6F894DEBF0FBECDBF8C
:10077000DF91CF91FF90EF90DF90CF90BF90AF903F
:100780009F908F9008950E9491010E943703FDCFA2
:10079000DB018F939F930E941904BF91AF91A29F99
:1007A000800D911DA39F900DB29F900D112408956F
:1007B000A1E21A2EAA1BBB1BFD010DC0AA1FBB1F65
:1007C000EE1FFF1FA217B307E407F50720F0A21BD7
:1007D000B30BE40BF50B661F771F881F991F1A9444
:1007E00069F760957095809590959B01AC01BD016E
:1007F000CF010895052E97FB1EF400940E9411046A
:1008000057FD07D00E94D80307FC03D04EF40C9488
:10081000110450954095309521953F4F4F4F5F4FB4
:10082000089590958095709561957F4F8F4F9F4F5C
:1008300008950E942404A59F900DB49F900DA49F3D
:10084000800D911D11240895A29FB001B39FC00196
:10085000A39F700D811D1124911DB29F700D811DEC
:100860001124911D08955058BB27AA270E944B04BC
:100870000C94C5050E94B70538F00E94BE0520F013
:1008800039F49F3F19F426F40C94B4050EF4E09566
:10089000E7FB0C94AE05E92F0E94D60558F3BA1772
:1008A000620773078407950720F079F4A6F50C9486
:1008B000F8050EF4E0950B2EBA2FA02D0B01B9010F
:1008C00090010C01CA01A0011124FF27591B99F0C6
:1008D000593F50F4503E68F11A16F040A22F232FD2
:1008E000342F4427585FF3CF469537952795A79522
:1008F000F0405395C9F77EF41F16BA0B620B730BC9
:10090000840BBAF09150A1F0FF0FBB1F661F771F39
:10091000881FC2F70EC0BA0F621F731F841F48F4EE
:10092000879577956795B795F7959E3F08F0B0CF77
:100930009395880F08F09927EE0F9795879508955E
:100940000E948A0508F481E008950E94B9040C947D
:10095000C5050E94BE0558F00E94B70540F029F475
:100960005F3F29F00C94AE0551110C94F9050C94DD
:10097000B4050E94D60568F39923B1F3552391F38A
:10098000951B550BBB27AA2762177307840738F0FE
:100990009F5F5F4F220F331F441FAA1FA9F335D05B
:1009A0000E2E3AF0E0E832D091505040E695001C0F
:1009B000CAF72BD0FE2F29D0660F771F881FBB1FC9
:1009C000261737074807AB07B0E809F0BB0B802DA7
:1009D000BF01FF2793585F4F3AF09E3F510578F0D3
:1009E0000C94AE050C94F9055F3FE4F3983ED4F304
:1009F000869577956795B795F7959F5FC9F7880FA7
:100A0000911D9695879597F90895E1E0660F771FF8
:100A1000881FBB1F621773078407BA0720F0621B89
:100A2000730B840BBA0BEE1F88F7E09508950E94B4
:100A30001E056894B1110C94F90508950E94DE0515
:100A400088F09F5798F0B92F9927B751B0F0E1F08F
:100A5000660F771F881F991F1AF0BA95C9F714C03F
:100A6000B13091F00E94F805B1E008950C94F805BA
:100A7000672F782F8827B85F39F0B93FCCF3869578
:100A800077956795B395D9F73EF4909580957095D5
:100A900061957F4F8F4F9F4F0895E89409C097FB52
:100AA0003EF490958095709561957F4F8F4F9F4F45
:100AB0009923A9F0F92F96E9BB279395F695879589
:100AC00077956795B795F111F8CFFAF4BB0F11F44C
:100AD00060FF1BC06F5F7F4F8F4F9F4F16C08823F3
:100AE00011F096E911C0772321F09EE8872F762F29
:100AF00005C0662371F096E8862F70E060E02AF06A
:100B00009A95660F771F881FDAF7880F9695879555
:100B100097F90895990F0008550FAA0BE0E8FEEF2A
:100B200016161706E807F907C0F012161306E407B1
:100B3000F50798F0621B730B840B950B39F40A26AA
:100B400061F0232B242B252B21F408950A2609F488
:100B5000A140A6958FEF811D811D089597F99F678C
:100B600080E870E060E008959FEF80EC0895002435
:100B70000A941616170618060906089500240A9402
:100B800012161306140605060895092E0394000C88
:100B900011F4882352F0BB0F40F4BF2B11F460FF17
:100BA00004C06F5F7F4F8F4F9F4F089557FD905840
:100BB000440F551F59F05F3F71F04795880F97FB21
:100BC000991F61F09F3F79F08795089512161306DB
:100BD0001406551FF2CF4695F1DF08C0161617060A
:100BE0001806991FF1CF869571056105089408953F
:100BF000E894BB2766277727CB0197F908950E94D1
:100C00008A0508F48FEF08950E9417060C94C50515
:100C10000E94B70538F00E94BE0520F0952311F020
:100C20000C94AE050C94B40511240C94F9050E94A3
:100C3000D60570F3959FC1F3950F50E0551F629F45
:100C4000F001729FBB27F00DB11D639FAA27F00D25
:100C5000B11DAA1F649F6627B00DA11D661F829F4C
:100C60002227B00DA11D621F739FB00DA11D621F31
:100C7000839FA00D611D221F749F3327A00D611D4E
:100C8000231F849F600D211D822F762F6A2F112430
:100C90009F5750409AF0F1F088234AF0EE0FFF1F63
:100CA000BB1F661F771F881F91505040A9F79E3FBA
:100CB000510580F00C94AE050C94F9055F3FE4F308
:100CC000983ED4F3869577956795B795F795E79510
:100CD0009F5FC1F7FE2B880F911D9695879597F919
:060CE0000895F894FFCF17
:100CE600CDCC4C3DCDCC4C3D4E3A002000506572EB
:100CF600696F645F75733A004E6F204D6F76650DB0
:100D06000A004D6F76652043570D0A004D6F7665D4
:100D1600204343570D0A004144433A005365743A51
:060D2600004375723A0063
:00000001FF
