:100000000C9434000C9451000C9451000C94510049
:100010000C9451000C9451000C9451000C9451001C
:100020000C9451000C9451000C9451000C9451000C
:100030000C9451000C9451000C9451000C945100FC
:100040000C9451000C9451000C9451000C945100EC
:100050000C9451000C9451000C9451000C945100DC
:100060000C9451000C94510011241FBECFEFD8E026
:10007000DEBFCDBF11E0A0E0B1E0EEE0FEE002C0E7
:1000800005900D92A634B107D9F721E0A6E4B1E0BE
:1000900001C01D92A235B207E1F70E94B8030C948B
:1000A000F6060C9400009091C00095FFFCCF809361
:1000B000C6000895CF93DF93EC018881811103C0BE
:1000C000DF91CF91089521960E945300F6CF4F9271
:1000D0005F926F927F92AF92BF92CF92DF92EF9238
:1000E000FF920F931F93CF93DF93CDB7DEB72C977B
:1000F0000FB6F894DEBF0FBECDBF2B013C018A01C5
:100100004114540464047404C9F480E3FA01808344
:1001100011822C960FB6F894DEBF0FBECDBFDF91D3
:10012000CF911F910F91FF90EF90DF90CF90BF90F4
:10013000AF907F906F905F904F9008956E018FEF1A
:10014000C81AD80A5601E12CF12CB201C3012AE0E9
:1001500030E040E050E00E94CD03D7018FEFE81A75
:10016000F80A605DF50161935F01B201C3012901E5
:100170003A016A3070408040904038F7AC0DBD1DA8
:10018000F801E00EF11E8C9181931197EE15FF0599
:10019000D1F71082BECF4F925F926F927F92AF9253
:1001A000BF92CF92DF92EF92FF920F931F93CF9364
:1001B000DF93CDB7DEB760970FB6F894DEBF0FBE02
:1001C000CDBF6B017C0140E050E09A010E94950494
:1001D00087FF07C08DE20E945300F7FAF094F7F80A
:1001E000F094B601C7010E9413052B013C010E9447
:1001F00042059B01AC01B601C7010E94280420E022
:1002000030E048EC52E40E94F90520E030E040E0A4
:100210005FE30E9429040E9413055B016C017E01CB
:100220008FEFE81AF80A8701A701B201C3010E9403
:100230006700C7010E945A008EE20E9453008AE0C4
:10024000A816B104C104D10418F480E30E9453003D
:10025000A801B501C6010E946700C8010E945A00AA
:1002600060960FB6F894DEBF0FBECDBFDF91CF9181
:100270001F910F91FF90EF90DF90CF90BF90AF90C4
:100280007F906F905F904F9008956130C1F48830F7
:1002900048F49AB121E001C0220F8A95EAF7922B27
:1002A0009AB908958E3028F524B18850990B41E011
:1002B00001C0440F8A95EAF7242B24B908958830A9
:1002C00050F49AB121E001C0220F8A95EAF72095F7
:1002D00029232AB908958E3060F444B18850990BCF
:1002E00021E001C0220F8A95EAF7822F80958423AE
:1002F00084B9089580917A00806480937A00809117
:100300007A0086FDFCCF8091780090917900089565
:10031000549A539A529A5598E0ECF0E080818260AA
:1003200080831092C50080E18093C40088E08093B0
:10033000C10086E08093C20085E480937C00EAE7F8
:1003400080818068808308954F925F926F927F9240
:10035000AF92BF92CF92DF92EF92FF920F931F93D3
:10036000CF93DF93CDB7DEB729013A019B01AC01F2
:10037000241935094609570989899A89AB89BC89A5
:100380008A199B09AC09BD09BC01CD010E94BD03BE
:100390009701A80124193509460957090E94EF035E
:1003A0002A0D3B1D4C1D5D1DB901CA01DF91CF9186
:1003B0001F910F91FF90EF90DF90CF90BF90AF9083
:1003C0007F906F905F904F90089520E030E0281765
:1003D000390709F4089545E04A95F1F700002F5FC9
:1003E0003F4FF5CF883078F421E001C0220F8A9585
:1003F000EAF79BB1822F613019F4892B8BB90895EC
:1004000080958923FBCF982F9850963068F48850B8
:10041000990B21E001C0220F8A95EAF795B1822F4E
:10042000613019F4892B85B9089580958923FBCF14
:100430002F923F924F925F926F927F928F929F92F4
:10044000AF92BF92CF92DF92EF92FF920F931F93E2
:10045000CF93DF9300D000D0CDB7DEB71B018983E7
:100460009A8389014B835C83A82FB92F9B01AD012F
:10047000AB81BC81B801CD010E9428044B015C0115
:1004800020E030E048EC53E40E94F9059F776B01CF
:100490007C0120E030E040E85FE30E94950487FDA6
:1004A00055C020E034E244E759E4609104017091C2
:1004B000050180910601909107010E94F9059601BE
:1004C000A7010E949A042B013C0188E091E00E9460
:1004D0005A00B601C7010E94CB008BE091E00E9458
:1004E0005A008DE091E00E945A00B201C3010E94BF
:1004F000CB008BE091E00E945A009401A5015F7748
:1005000060910001709101018091020190910301BD
:100510000E94F40587FD3AC040E050E09A01AB81AB
:10052000BC81B801CD010E949504803079F187E14A
:1005300091E00E945A009601A701B201C3010E94F6
:10054000F9050E941305CB010E94E5018101898113
:100550008B838A818C83AB81BC81B801CD010F90E4
:100560000F900F900F90DF91CF911F910F91FF90FF
:10057000EF90DF90CF90BF90AF909F908F907F9043
:100580006F905F904F903F902F90089540E050E023
:100590009A01B401C5010E94F405181634F581E2F0
:1005A00091E00E945A005C9A5B98B601C7010E94D4
:1005B0000C055B01C12CD12CAC14BD0461F25A9A1C
:1005C000B201C3010E9413057B0183E0F694E79416
:1005D0008A95E1F7C7010E94E5015A98C7010E9478
:1005E000E5018FEFC81AD80AE7CF40E050E09A0142
:1005F000B401C5010E94950487FFD7CF8BE291E03B
:100600000E945A005C985B9AD0CF8F929F92AF92D3
:10061000BF92CF92DF92EF92FF92CF93DF93CDB74D
:10062000DEB760970FB6F894DEBF0FBECDBF20E0F7
:1006300030E040E850E460914E0170914F018091AC
:100640005001909151010E94F9050E94660620E038
:1006500030E040E85FE30E94290420E030E040E021
:1006600054E40E94F9050E9413056B01E12CF12C62
:10067000C7010E94420520E030EC4FE754E40E949D
:100680009A0440EC50E497010E94F9054B015C018B
:1006900060914A0170914B0180914C0190914D0104
:1006A0009401A5010E94180260934A0170934B01C6
:1006B00080934C0190934D0186E391E00E945A0093
:1006C000CE010196AC01B601C7010E946700CE01C0
:1006D00001960E945A008BE091E00E945A008BE341
:1006E00091E00E945A00B401C5010E94CB008BE04A
:1006F00091E00E945A0080E491E00E945A006091CB
:100700004A0170914B0180914C0190914D010E94E2
:10071000CB008BE091E00E945A0088E291E00E94B9
:100720005A002AE037ED43EA5BE360914E01709195
:100730004F0180915001909151010E9429046093D2
:100740004E0170934F018093500190935101609638
:100750000FB6F894DEBF0FBECDBFDF91CF91FF90F3
:10076000EF90DF90CF90BF90AF909F908F900895C3
:100770000E9488010E940503FDCFDB018F939F93A8
:100780000E940E04BF91AF91A29F800D911DA39F67
:10079000900DB29F900D11240895A1E21A2EAA1B6C
:1007A000BB1BFD010DC0AA1FBB1FEE1FFF1FA21721
:1007B000B307E407F50720F0A21BB30BE40BF50B1E
:1007C000661F771F881F991F1A9469F760957095A7
:1007D000809590959B01AC01BD01CF010895052E38
:1007E00097FB1EF400940E94060457FD07D00E9458
:1007F000CD0307FC03D04EF40C94060450954095AD
:10080000309521953F4F4F4F5F4F089590958095BC
:10081000709561957F4F8F4F9F4F08950E941904E7
:10082000A59F900DB49F900DA49F800D911D112444
:100830000895A29FB001B39FC001A39F700D811DB9
:100840001124911DB29F700D811D1124911D0895D9
:100850005058BB27AA270E9440040C94BA050E9456
:10086000AC0538F00E94B30520F039F49F3F19F42D
:1008700026F40C94A9050EF4E095E7FB0C94A3056F
:10088000E92F0E94CB0558F3BA1762077307840754
:10089000950720F079F4A6F50C94ED050EF4E0959B
:1008A0000B2EBA2FA02D0B01B90190010C01CA012A
:1008B000A0011124FF27591B99F0593F50F4503ED5
:1008C00068F11A16F040A22F232F342F4427585FC7
:1008D000F3CF469537952795A795F0405395C9F7DF
:1008E0007EF41F16BA0B620B730B840BBAF0915097
:1008F000A1F0FF0FBB1F661F771F881FC2F70EC036
:10090000BA0F621F731F841F48F487957795679508
:10091000B795F7959E3F08F0B0CF9395880F08F0F4
:100920009927EE0F9795879508950E947F0508F403
:1009300081E008950E94AE040C94BA050E94B305AC
:1009400058F00E94AC0540F029F45F3F29F00C9468
:10095000A30551110C94EE050C94A9050E94CB053A
:1009600068F39923B1F3552391F3951B550BBB27DE
:10097000AA2762177307840738F09F5F5F4F220F23
:10098000331F441FAA1FA9F335D00E2E3AF0E0E81A
:1009900032D091505040E695001CCAF72BD0FE2F64
:1009A00029D0660F771F881FBB1F261737074807F8
:1009B000AB07B0E809F0BB0B802DBF01FF279358B0
:1009C0005F4F3AF09E3F510578F00C94A3050C94CC
:1009D000EE055F3FE4F3983ED4F3869577956795EF
:1009E000B795F7959F5FC9F7880F911D96958795E5
:1009F00097F90895E1E0660F771F881FBB1F621704
:100A000073078407BA0720F0621B730B840BBA0BC1
:100A1000EE1F88F7E09508950E9413056894B111C0
:100A20000C94EE0508950E94D30588F09F5798F026
:100A3000B92F9927B751B0F0E1F0660F771F881FE3
:100A4000991F1AF0BA95C9F714C0B13091F00E94FD
:100A5000ED05B1E008950C94ED05672F782F8827F8
:100A6000B85F39F0B93FCCF3869577956795B39524
:100A7000D9F73EF490958095709561957F4F8F4F93
:100A80009F4F0895E89409C097FB3EF49095809598
:100A9000709561957F4F8F4F9F4F9923A9F0F92F44
:100AA00096E9BB279395F695879577956795B795C2
:100AB000F111F8CFFAF4BB0F11F460FF1BC06F5FA8
:100AC0007F4F8F4F9F4F16C0882311F096E911C0BA
:100AD000772321F09EE8872F762F05C0662371F0DB
:100AE00096E8862F70E060E02AF09A95660F771FEF
:100AF000881FDAF7880F9695879597F90895990FCB
:100B00000008550FAA0BE0E8FEEF16161706E807D7
:100B1000F907C0F012161306E407F50798F0621BF8
:100B2000730B840B950B39F40A2661F0232B242BCD
:100B3000252B21F408950A2609F4A140A6958FEFEC
:100B4000811D811D089597F99F6780E870E060E03E
:100B500008959FEF80EC089500240A941616170656
:100B600018060906089500240A941216130614069E
:100B700005060895092E0394000C11F4882352F001
:100B8000BB0F40F4BF2B11F460FF04C06F5F7F4FB9
:100B90008F4F9F4F089557FD9058440F551F59F0A0
:100BA0005F3F71F04795880F97FB991F61F09F3F5A
:100BB00079F087950895121613061406551FF2CF83
:100BC0004695F1DF08C0161617061806991FF1CFD3
:100BD00086957105610508940895E894BB276627FA
:100BE0007727CB0197F908950E947F0508F48FEFCE
:100BF00008950E940C060C94BA050E94AC0538F0CA
:100C00000E94B30520F0952311F00C94A3050C94D9
:100C1000A90511240C94EE050E94CB0570F3959F55
:100C2000C1F3950F50E0551F629FF001729FBB27E3
:100C3000F00DB11D639FAA27F00DB11DAA1F649F7F
:100C40006627B00DA11D661F829F2227B00DA11D32
:100C5000621F739FB00DA11D621F839FA00D611DB8
:100C6000221F749F3327A00D611D231F849F600DD9
:100C7000211D822F762F6A2F11249F5750409AF002
:100C8000F1F088234AF0EE0FFF1FBB1F661F771F8E
:100C9000881F91505040A9F79E3F510580F00C9459
:100CA000A3050C94EE055F3FE4F3983ED4F38695DC
:100CB00077956795B795F795E7959F5FC1F7FE2BF9
:100CC000880F911D9695879597F908959F930E9497
:100CD00070060F9007FCEE5F0C9499060C94A90522
:100CE0000E94D305D8F3E894E0E0BB279F57F0F0CB
:100CF0002AED3FE049EC06C0EE0FBB0F661F771FE1
:100D0000881F28F0B23A62077307840728F0B25AA6
:100D1000620B730B840BE3959A9572F7803830F46D
:100D20009A95BB0F661F771F881FD2F790480C94C7
:100D3000AF06EF93E0FF07C0A2EA2AED3FE049ECDF
:100D40005FEB0E9440040E94BA050F90039401FCDF
:100D50009058E0EFFDE00C94BB069F3F31F09150BE
:100D600020F4879577956795B795880F911D96958F
:100D7000879597F908959F938F937F936F93FF9330
:100D8000EF939B01AC010E94F905EF91FF910E9446
:100D9000CF062F913F914F915F910C94F905DF930E
:100DA000CF931F930F93FF92EF92DF927B018C0101
:100DB000689406C0DA2EEF010E940C06FE01E8944A
:100DC000A5912591359145915591A6F3EF010E948A
:100DD0004004FE019701A801DA9469F7DF90EF90D3
:100DE000FF900F911F91CF91DF910895F894FFCF5D
:100DF00005A84CCDB2D44EB93836A9020C50B991E1
:0E0E00008688083CA6AAAA2ABE000000803FF1
:100E0E00CDCC4C3DCDCC4C3D4E3A00200044656CD3
:100E1E0061795F75733A004E6F204D6F76650D0ADE
:100E2E00004D6F76652043570D0A004D6F76652095
:100E3E004343570D0A004144433A005365743A0048
:060E4E004375723A00003A
:00000001FF
